:100000000C944A000C9467000C9467000C946700F1
:100010000C9467000C9467000C9467000C946700C4
:100020000C9467000C9467000C9467000C946700B4
:100030000C9467000C9467000C9467000C946700A4
:100040000C9467000C9467000C9467000C94670094
:100050000C946700001F000000001F00001F10101C
:1000600010101F00001F181818181F00001F1C1C5C
:100070001C1C1F00001F1E1E1E1E1F00001F1F1F16
:100080001F1F1F0003070F1F0F070300181C1E1F51
:100090001E1C180011241FBECFE5D8E0DEBFCDBF67
:1000A00012E0A0E6B0E0EEEAF7E302C005900D92A0
:1000B000AC38B107D9F713E0ACE8B2E001C01D924B
:1000C000A838B107E1F70E9417160C94D51B0C94C1
:1000D0000000DF93CF930F92CDB7DEB7898389817C
:1000E00090E002C0959587956A95E2F781700F9030
:1000F000CF91DF910895DF93CF930F92CDB7DEB705
:100100008983298130E002C0359527956A95E2F709
:1001100081E020FD80E00F90CF91DF91089581EF85
:100120008FBD83E08EBD08953E9A379A86B1876071
:1001300086B908953C983B983A983998389897B181
:10014000982B97B9369A3699FECF24B135B1C901AB
:100150000895CF92DF92EF92FF920F931F93DF9358
:10016000CF93CDB7DEB76E970FB6F894DEBF0FBE54
:10017000CDBF8C01E62EF42EC22E862F642F0E9456
:100180005217CC2079F0DD24D39406C080E690E0AD
:1001900061E00E943117D394CD14C0F78E2D6F2DDE
:1001A0000E9452178DB79EB708970FB6F8949EBF5E
:1001B0000FBE8DBFEDB7FEB731967E010894E11CEE
:1001C000F11CADB7BEB71296FC92EE9211978FE07C
:1001D00090E09383828382E690E095838483178303
:1001E00006830E94C018F70101900020E9F7BF01C3
:1001F000615070406E197F098DB79EB708960FB693
:10020000F8949EBF0FBE8DBFC7010E9431176E9636
:100210000FB6F894DEBF0FBECDBFCF91DF911F9117
:100220000F91FF90EF90DF90CF900895EF92FF92A3
:100230000F931F93DF93CF93CDB7DEB76E970FB6B3
:10024000F894DEBF0FBECDBF8C01F62E662359F0A9
:10025000EE24E39406C080E690E061E00E9431174E
:10026000E394FE14C0F78DB79EB708970FB6F894C5
:100270009EBF0FBE8DBFEDB7FEB731967E010894CD
:10028000E11CF11CADB7BEB71296FC92EE9211972D
:100290008FE090E09383828382E690E0958384836D
:1002A000178306830E94C018F70101900020E9F728
:1002B000BF01615070406E197F098DB79EB70896D7
:1002C0000FB6F8949EBF0FBE8DBFC7010E943117B5
:1002D0006E960FB6F894DEBF0FBECDBFCF91DF9103
:1002E0001F910F91FF90EF9008950F931F93082F88
:1002F000162F642F0E94521706C080E690E061E03E
:100300000E9431170F5F1017C0F71F910F910895CA
:1003100083B360E00E947B00089583B361E00E9494
:100320007B00089583B362E00E947B00089583B34D
:1003300063E00E947B00089583B361E00E947B002C
:10034000089583B362E00E947B00089583B363E065
:100350000E947B00089583B360E00E947B000895B3
:1003600083B360E00E946900882391F083B361E069
:100370000E946900882361F083B362E00E946900F3
:10038000882331F083B363E00E946900882341F73A
:10039000089583B360E00E947B008823B9F483B39F
:1003A00061E00E947B00882389F483B362E00E94AD
:1003B0007B00882359F483B363E00E947B0021E033
:1003C00030E0882329F420E030E002C021E030E072
:1003D000822F089583B360E00E9469008823C1F0F2
:1003E00083B361E00E946900882391F083B362E0E7
:1003F0000E946900882379F083B363E00E9469005A
:1004000021E030E0882311F420E030E0C9010895B4
:1004100080E090E0089580E090E008950E94B001AF
:1004200083B360E00E947B00882371F483B361E0B2
:100430000E947B00882351F483B362E00E947B001A
:10044000882331F082E005C080E003C081E001C074
:1004500083E02FE739EA43E0215030404040E1F7A4
:1004600000C000000895BF92CF92DF92EF92FF92FA
:100470000F931F93CF93DF936C017B01BB240DE39C
:1004800010E03BC080E060E00E945217C60160E1CE
:100490000E94311780E061E00E94521785E690E0EB
:1004A00060E10E943117CB2DD0E0CC0FDD1FCE0DC7
:1004B000DF1D8881992787FD909563E041E024E066
:1004C0000E94A9008981992787FD909569E041E004
:1004D00024E00E94A9000E940E02833011F4B3941C
:1004E0000CC0882311F4BA9408C0823011F0813016
:1004F00021F41093950200939402809194029091BC
:10050000950222E08636920709F4BCCFDF91CF91A5
:100510001F910F91FF90EF90DF90CF90BF900895C3
:10052000DF92EF92FF920F931F93CF93DF937C01A3
:100530008B01DD24CDE3D0E02FC080E060E00E949D
:100540005217C70160E10E94311780E061E00E940C
:10055000521786E790E060E10E943117F801ED0D37
:10056000F11D8081992787FD909566E041E024E0A8
:100570000E94A9000E940E02833011F4D3940CC093
:10058000882311F4DA9408C0823011F0813021F40C
:10059000D0939502C0939402809194029091950219
:1005A00022E08636920749F2DF91CF911F910F9199
:1005B000FF90EF90DF900895CF93DF9380E00E944B
:1005C0009A009093F7028093F60281E00E949A00CD
:1005D0009093F9028093F80282E00E949A0090932F
:1005E000FB028093FA028BB3877C8BBB87E00E946F
:1005F0009A009093E3028093E20286E00E949A00C0
:100600009093EB028093EA028BB3877C88608BBB6C
:1006100087E00E949A009093DD028093DC0286E0DE
:100620000E949A009093F5028093F4028BB3877C2A
:1006300080618BBB87E00E949A009093DF028093D9
:10064000DE0286E00E949A009093E7028093E60221
:100650008BB3877C88618BBB87E00E949A00909364
:10066000DB028093DA0286E00E949A009093F30204
:100670008093F2028BB3877C80628BBB87E00E9401
:100680009A009093E1028093E00286E00E949A0033
:100690009093E9028093E8028BB3877C88628BBBDE
:1006A00087E00E949A00C6EDD2E09983888386E0B5
:1006B0000E949A00998F888F8BB3877C80638BBB55
:1006C00087E00E949A009F878E8786E00E949A00AA
:1006D0009F8B8E8B8BB388638BBB87E00E949A00C5
:1006E0009B838A8386E00E949A009B8F8A8FDF918A
:1006F000CF9108950F931F93CF93DF931092D10260
:100700001092CF02109287030E94DC022091F60221
:100710003091F702809181039091820382179307B1
:1007200028F4809187038160809387032091F802E9
:100730003091F9028091830390918403821793078B
:1007400028F4809187038260809387032091FA02C6
:100750003091FB0280918503909186038217930765
:1007600028F4809187038460809387030091CF02EF
:100770001091D102A6EDB2E0E1E6F3E080E090E076
:1007800021E030E0482FCD91DD91619171916C179E
:100790007D0740F4B901082E02C0660F771F0A9446
:1007A000E2F7062B1E96CD91DC911F976685778523
:1007B0006C177D0738F4B90102C0660F771F4A95A0
:1007C000E2F7162B019688309105E1F60093CF02EF
:1007D0001093D102DF91CF911F910F9108952F9225
:1007E0003F924F925F926F927F928F929F92AF92C1
:1007F000BF92CF92DF92EF92FF920F931F93DF93FE
:10080000CF93CDB7DEB7CC54D0400FB6F894DEBF4F
:100810000FBECDBF8FEB97E2A9E081509040A04082
:10082000E1F700C000000E9429172E010894411C26
:10083000511C8E01095D1F4FD801F2018FEF93E02B
:10084000819391931D921D92E017F107C9F7E6C0BD
:100850000E94DC0246ED52E021E633E0D8011201AD
:10086000BB24FA0181919191AF01F1016081718105
:100870008617970710F4918380836D917C9111976F
:100880006817790718F411969C938E938D919D911A
:10089000F101619171911F01860F971F96958795C0
:1008A000F901819391939F01B394FB2DF031C9F627
:1008B0008091F6029091F70229A13AA1821793073D
:1008C00010F49AA389A3D7012D913C911197281771
:1008D000390718F411969C938E93F70180819181CA
:1008E00029A13AA1820F931F969587959093820331
:1008F000809381038091F8029091F9022BA13CA191
:100900008217930710F49CA38BA3D6012D913C91E1
:1009100011972817390718F411969C938E93F601B6
:10092000808191812BA13CA1820F931F9695879581
:1009300090938403809383038091FA029091FB0249
:100940002DA13EA18217930710F49EA38DA3D3017E
:100950002D913C9111972817390710F48D939C9392
:10096000F301808191812DA13EA1820F931F969565
:10097000879590938603809385030E947A03EFE026
:10098000AE2E77E0B72E982C9B188091D102692D5E
:100990000E946900882319F081E090E002C080E0A5
:1009A00090E06B2D41E021E00E94A9008091CF02F0
:1009B000692D0E946900882319F081E090E002C04F
:1009C00080E090E06A2D41E021E00E94A900BA9405
:1009D000AA94FB2DFF3FB9F68091870360E00E9447
:1009E000690090E067E040E021E00E94A90080916A
:1009F000870362E00E94690090E068E040E021E047
:100A00000E94A9008091870361E00E94690090E044
:100A100069E040E021E00E94A90011C067E4E62EF1
:100A2000F12CEC0EFD1E59E4C52ED12CCC0EDD1E92
:100A30004BE4642E712C6C0E7D1E37E0832E0E94D9
:100A4000EA01882309F004CF21E6E22E23E0F22E0A
:100A500007E112E0D7016D917D917D017695679553
:100A600076956795C8010E94E01A0F5F1F4FB2E0AC
:100A70000A321B0779F71092950210929402C45B18
:100A8000DF4F0FB6F894DEBF0FBECDBFCF91DF9121
:100A90001F910F91FF90EF90DF90CF90BF90AF909C
:100AA0009F908F907F906F905F904F903F902F908E
:100AB00008950E94EF03089508951F93CF93DF9345
:100AC00082E090E0609191020E94F11A11E01CC056
:100AD000C12FD0E0FE01E956FD4FCE0103966081A3
:100AE0000E94F11AFE01E25DFC4FCE018C966081FE
:100AF0000E94F11AFE01E450FD4FCE018B5A9F4F28
:100B000060810E94F11A1F5F80919102811700F7A6
:100B1000DF91CF911F9108950F931F93CF93DF9390
:100B200082E090E00E94D81A082F8093910211E091
:100B30001BC0C12FD0E0CE0103960E94D81AFE013F
:100B4000E956FD4F8083CE018C960E94D81AFE0193
:100B5000E25DFC4F8083CE018B5A9F4F0E94D81AD2
:100B6000C450DD4F88831F5F011718F7DF91CF91C5
:100B70001F910F910895EF92FF920F931F9380E2C0
:100B80008093910270E87093970210922E038FE089
:100B90008093FC0260EC6093980210922F034EE069
:100BA0004093FD02A0EEEA2EE092990210923003EB
:100BB000EDE0E093FE02F0E6FF2EF0929A02109232
:100BC00031035CE05093FF0200E700939B02109218
:100BD00032038BE08093000310E310939C02109289
:100BE00033038AE080930103B8E3B0939D0210922F
:100BF000340389E080930203A8E1A0939E0210923F
:100C0000350388E080930303FCE1F0939F02109288
:100C1000360327E0209304035093A0021092370379
:100C200036E0309305034093A1021092380385E02B
:100C3000809306033093A2021092390394E09093BC
:100C400007032093A30210923A038093080393E0D2
:100C50009093A40210923B0382E080930903909347
:100C6000A50270933C0310920A0381E08093A602D0
:100C700070933D0310920B038093A70260933E0391
:100C800010920C031092A80260933F036EEF6093E2
:100C90000D031092A902E09240036BEF60930E03E4
:100CA0001092AA02F09241037CEF70930F0310920E
:100CB000AB0200934203609310031092AC021093B6
:100CC00043036AEF609311031092AD02B0934403A3
:100CD00069EF609312031092AE02A093450368EF90
:100CE000609313031092AF02F093460367EF609393
:100CF00014031092B0025093470356EF509315031C
:100D00001092B1024093480345EF409316031092AE
:100D1000B2023093490334EF309317031092B302B9
:100D200020934A0323EF209318031092B402909368
:100D30004B0392EF909319031092B50280934C03EA
:100D400081EF80931A0388E78093B60210924D03D7
:100D5000E0931B031092B7028EE180934E03209321
:100D60001C031F910F91FF90EF9008950F931F9315
:100D7000CF93DF9310928D0210928E0210928F0209
:100D8000109290020E94BB050E94A4170E9429178E
:100D900080E060E00E9452170E94291780E060E026
:100DA0000E9452170E948F0081B38C6381BB80EE3A
:100DB00084BB8FE085BB88E38ABB0E94940081E0FE
:100DC0008093D0021092930288E78093CC028BE24A
:100DD00092E00E94D81A809392028CE292E00E94E4
:100DE000D81A8093CD021092CE028DE292E00E943A
:100DF000D81A8093D2021092D30201E613E0C7E121
:100E0000D2E0CE010E94D81A90E0880F991F880F77
:100E1000991FF801819391938F012196F2E0CA32D4
:100E2000DF0779F7DF91CF911F910F91089580E14E
:100E300080939102E0E8E093970210922E038FE0F6
:100E40008093FC0270EC7093980210922F038EE056
:100E50008093FD0260E660939902109230039CE05B
:100E60009093FE0250E350939A02109231038AE06D
:100E70008093FF0248E140939B021092320388E086
:100E80008093000390939C021092330386E080933A
:100E9000010380939D021092340324E02093020307
:100EA00033E030939E021092350322E02093030337
:100EB00021E020939F02E0933603109204031092E6
:100EC000A002709337037EEF709305031092A10286
:100ED000609338036CEF609306031092A202509364
:100EE00039035AEF509307031092A30240933A0339
:100EF00048EF409308031092A40290933B0396EFAF
:100F0000909309031092A50280933C0384EF809391
:100F10000A031092A60230933D0382EF80930B03E5
:100F20001092A70220933E0381EF80930C03089553
:100F30000E947A03509191024091D1023091CF02E8
:100F400020E0822F90E0FC01E956FD4F60814617BA
:100F500071F4FC01E25DFC4F6081361741F484506E
:100F60009D4FFC0180818093600381E008952F5F95
:100F7000521738F780E0089582B3837F846082BB84
:100F8000089582B3837F886082BB089582B38C60AA
:100F900082BB089582B3837F82BB08950F931F9312
:100FA000CF93DF93A09160032A2F332727FD30953D
:100FB00070E0629FF001639FF00D729FF00D1124AD
:100FC00050E060919302772767FD7095E901C61B99
:100FD000D70B4C9F90014D9F300D5C9F300D11241D
:100FE00090E0AC014E1B5F0B421B530B5093CA02A7
:100FF0004093C902E80FF91FE20FF31FF093D502E7
:10100000E093D4022091CC02822F90E08E179F07AC
:1010100014F4322F01C030E0841795070CF020E063
:101020000E2F021B142F131BA093930257FD04C015
:10103000F7FD02C00E94BC074091C9025091CA024C
:1010400057FD08C04091D4025091D50257FF02C00D
:101050000E94CA074091C9025091CA0257FF08C0B6
:101060004091D4025091D50257FD02C00E94C6079C
:101070009091CC02901708F4092F202F30E039BD51
:1010800028BD911708F4192F812F90E09BBD8ABDD0
:10109000DF91CF911F910F9108950F931F93E091CE
:1010A00060038E2F992787FD90952091CD02309176
:1010B000CE02829FB001839F700D929F700D11240C
:1010C00020919302332727FD3095821B930B2091AB
:1010D000D2023091D302829FA001839F500D929F34
:1010E000500D11248091920290E09C01261B370B39
:1010F000241B350B3093CA022093C902860F971F19
:10110000840F951F9093D5028093D4026091CC02F6
:10111000462F50E04817590714F4762F01C070E0AD
:10112000421753070CF060E0082F061B122F171B05
:10113000E093930237FD04C097FD02C00E94BC07F4
:101140004091C9025091CA0257FD08C04091D40293
:101150005091D50257FF02C00E94CA074091C902B0
:101160005091CA0257FF08C04091D4025091D50255
:1011700057FD02C00E94C6079091CC02901708F458
:10118000092F202F30E039BD28BD911708F4192F01
:10119000812F90E09BBD8ABD1F910F910895FF9212
:1011A0000F931F93CF93DF93082F162FF42E2091C8
:1011B0008D0230918E0240918F02509190022F5FEC
:1011C0003F4F4F4F5F4F20938D0230938E024093DD
:1011D0008F02509390028091D102882309F04AC077
:1011E0008091CF02882309F045C08091870360E099
:1011F0000E9469008823E1F08091870361E00E94EA
:101200007B00882351F414C00E947A030E94C60711
:10121000D9BDC8BDDBBDCABD02C0CEE1D0E0809162
:10122000CF02882339F58091D102882369F322C047
:101230008091870361E00E9469008823D9F0809142
:10124000870360E00E947B00882351F413C00E9452
:101250007A030E94CA07D9BDC8BDDBBDCABD02C0A2
:10126000CEE1D0E08091CF02882321F48091D10299
:10127000882369F30E949807882331F0802F612F1B
:101280004F2D0E94CE0708C00E94BC0788E290E064
:101290009BBD8ABD99BD88BDDF91CF911F910F91F4
:1012A000FF9008951F93109191028EE18093910217
:1012B00010928D0210928E0210928F021092900264
:1012C0000E947A0308C0809192026091CD02409101
:1012D000D2020E94CF0880918D0290918E02A0913F
:1012E0008F02B0919002813223E0920720E0A207A2
:1012F00020E0B20740F31093910210928D021092F9
:101300008E0210928F02109290021F9108951F93E7
:101310001091910284E28093910210928D021092BA
:101320008E0210928F02109290020E947A0308C0DF
:10133000809192026091CD024091D2020E94CF082A
:1013400080918D0290918E02A0918F02B0919002B7
:1013500081382CE0920720E0A20720E0B20740F39A
:101360001093910210928D0210928E0210928F02B1
:10137000109290021F91089510928D0210928E0289
:1013800010928F02109290020E947A031FC08091E7
:1013900092026091CD024091D2020E94CF080E9439
:1013A0009807882399F480918D0290918E02A091E4
:1013B0008F02B09190020196A11DB11D80938D0204
:1013C00090938E02A0938F02B09390020E94980790
:1013D000882369F080918D0290918E02A0918F02F6
:1013E000B091900282339105A105B10580F219BC3C
:1013F00018BC1BBC1ABC0E94EA018823E1F70895BF
:10140000AF92BF92CF92DF92EF92FF920F931F9312
:10141000DF93CF93CDB7DEB7C82EADB6BEB6109270
:101420008D0210928E0210928F02109290020E94F2
:101430007A032C2D30E02F5F3F4F220F331F220FF6
:10144000331F8DB79EB7821B930B0FB6F8949EBFC8
:101450000FBE8DBF0DB71EB70F5F1F4FDD24EE24EB
:10146000FF2433C0809192026091CD024091D2025C
:101470000E94CF080E9498078823F9F42091D10296
:101480002223D9F03091CF023323B9F080918D021D
:1014900090918E02A0918F02B09190020196A11DB1
:1014A000B11D80938D0290938E02A0938F02B09312
:1014B0009002F8013083218308C010928D021092AF
:1014C0008E0210928F021092900280918D02909164
:1014D0008E02A0918F02B09190028C159D05AE05F1
:1014E000BF0508F4BFCF19BC18BC1BBC1ABC1092B6
:1014F0008D0210928E0210928F021092900287E855
:1015000090E0B8010E9490020FB6F894BEBE0FBEE4
:10151000ADBECF91DF911F910F91FF90EF90DF90C3
:10152000CF90BF90AF90089585E00E94000A089583
:101530000F931F93CF93DF938FEB97E2A9E0815036
:101540009040A040E1F700C000000E947A03CEE185
:10155000D0E008E210E05EC08091D102882309F05B
:1015600044C08091CF02882309F03FC08091870357
:1015700060E00E9469008823C9F08091870361E0E0
:101580000E947B00882349F411C00E947A030E94C4
:10159000C607D9BDC8BDDBBDCABD8091CF028823B7
:1015A00021F58091D102882381F31FC080918703A8
:1015B00061E00E9469008823C1F08091870360E0A8
:1015C0000E947B00882349F410C00E947A030E9485
:1015D000CA07D9BDC8BDDBBDCABD8091CF02882373
:1015E00021F48091D102882381F30E9498078823F7
:1015F00019F00E944D080EC08091D102882351F449
:101600008091CF02882331F40E94BC071BBD0ABD24
:1016100019BD08BD0E94EA01882309F09DCF1BBCBB
:101620001ABC19BC18BC1092950210929402DF915A
:10163000CF911F910F9108950F931F93CF93DF9335
:101640008FEB97E2A9E081509040A040E1F700C005
:10165000000037C0809187029091880260E040E0EE
:1016600024E00E94A9000E94A601882399F080919D
:10167000870290918802A0918902B0918A020A960D
:10168000A11DB11D8093870290938802A0938902C7
:10169000B0938A020E94AB01882399F0809187025F
:1016A00090918802A0918902B0918A020A97A109BB
:1016B000B1098093870290938802A0938902B09326
:1016C0008A020E949C01882329F28FEB97E2A9E00D
:1016D00081509040A040E1F700C000000E947A03D2
:1016E000CEE1D0E008E210E069C00196A11DB11D75
:1016F00080938D0290938E02A0938F02B0939002FC
:101700008091D102882309F044C08091CF028823C0
:1017100009F03FC08091870360E00E946900882340
:10172000C9F08091870361E00E947B00882349F41F
:1017300011C00E947A030E94C607D9BDC8BDDBBD97
:10174000CABD8091CF02882321F58091D1028823E0
:1017500081F31FC08091870361E00E9469008823A4
:10176000C1F08091870360E00E947B00882349F4E8
:1017700010C00E947A030E94CA07D9BDC8BDDBBD54
:10178000CABD8091CF02882321F48091D1028823A1
:1017900081F30E949807882319F00E944D080EC01B
:1017A0008091D102882351F48091CF02882331F4B3
:1017B0000E94BC071BBD0ABD19BD08BD0E94EA01FD
:1017C0008823B1F080918D0290918E02A0918F02BA
:1017D000B091900220918702309188024091890255
:1017E00050918A0282179307A407B50708F47DCFAA
:1017F0001BBC1ABC19BC18BC109295021092940222
:10180000DF91CF911F910F91089508C080919202AE
:101810006091CD024091D2020E94CF088091D10206
:101820008F3121F48091CF02883F71F0809187033E
:1018300060E00E946900882349F38091870361E09A
:101840000E946900882311F30E94C6078EE190E090
:1018500099BD88BD9BBD8ABD8FE79CEFAAE08150F2
:101860009040A040E1F700C0000010928D0210925D
:101870008E0210928F02109290020E94170706C0EB
:101880008CE366E04091D2020E94CF0880918D02E5
:1018900090918E02A0918F02B09190028D3B22E038
:1018A000920720E0A20720E0B20750F306C084E1CF
:1018B00063E04091D2020E94CF088091870360E0EC
:1018C0000E946900882399F38091870361E00E9458
:1018D0006900882361F30E94C6078EE190E099BDFC
:1018E00088BD9BBD8ABD8FE79CEFAAE081509040E8
:1018F000A040E1F700C000000E94BC0710928D02DA
:1019000010928E0210928F021092900206C082E313
:1019100065E04091D2020E94CF088091870361E088
:101920000E947B00882399F70E94CA078EE190E00D
:1019300099BD88BD9BBD8ABD8FE79CEFAAE0815011
:101940009040A040E1F700C000000E94BC07109248
:101950008D0210928E0210928F02109290020E94BD
:10196000BB0506C08EE163E04091D2020E94CF0821
:101970008091870361E00E947B00882399F7089596
:10198000CF93DF930E94BC078EE190E099BD88BDA4
:101990009BBD8ABD8FE79CEFAAE081509040A0409C
:1019A000E1F700C0000010928D0210928E0210929A
:1019B0008F02109290020E947A0308C080919202D6
:1019C0006091CD024091D2020E94CF0880918D0299
:1019D00090918E02A0918F02B09190028333910575
:1019E000A105B10558F30E94CA078EE190E099BDA8
:1019F00088BD9BBD8ABD8FEB97E2A9E081509040E6
:101A0000A040E1F700C0000010928D0210928E02FB
:101A100010928F02109290020E947A0308C0809167
:101A200092026091CD024091D2020E94CF08809133
:101A30008D0290918E02A0918F02B091900283331B
:101A40009105A105B10558F30E94BC078EE190E015
:101A500099BD88BD9BBD8ABD8FEB97E2A9E08150FF
:101A60009040A040E1F700C0000010928D0210925B
:101A70008E0210928F021092900208C08091920202
:101A80006091CD024091D2020E94CF0880918D02D8
:101A900090918E02A0918F02B091900283339105B4
:101AA000A105B10558F30E94CA078EE190E099BDE7
:101AB00088BD9BBD8ABD8FEB97E2A9E08150904025
:101AC000A040E1F700C0000010928D0210928E023B
:101AD00010928F021092900208C080919202609141
:101AE000CD024091D2020E94CF0880918D02909148
:101AF0008E02A0918F02B0919002813921E092076D
:101B000020E0A20720E0B20738F48091870360E06C
:101B10000E947B00882309F70E94C607CEE1D0E02F
:101B2000D9BDC8BDDBBDCABD8FEB97E2A9E081502E
:101B30009040A040E1F700C000000E94BC07D9BD62
:101B4000C8BDDBBDCABD8FE799EAA3E081509040D4
:101B5000A040E1F700C000000E94C607D9BDC8BD83
:101B6000DBBDCABD8FEB97E2A9E081509040A04059
:101B7000E1F700C0000019BC18BC1BBC1ABC0E94D5
:101B8000EA018823E1F7DF91CF910895CF93DF93A6
:101B90000E94CA07CEE1D0E0D9BDC8BDDBBDCABD39
:101BA0008FEB97E2A9E081509040A040E1F700C0A0
:101BB00000008AE00E94000A0E94C607D9BDC8BD85
:101BC000DBBDCABD8FEB97E2A9E081509040A040F9
:101BD000E1F700C000008AE00E94000A0E94BC07F2
:101BE000D9BDC8BDDBBDCABD8FEF92E5A7E081506E
:101BF0009040A040E1F700C0000085E00E94000A8C
:101C00000E94C607D9BDC8BDDBBDCABD8FEB97E238
:101C1000A9E081509040A040E1F700C000008AE0B8
:101C20000E94000A0E94C607D9BDC8BDDBBDCABD5F
:101C30008FEB97E2A9E081509040A040E1F700C00F
:101C400000008AE00E94000A0E94BC07D9BDC8BDFE
:101C5000DBBDCABD8FEF92E5A7E081509040A04068
:101C6000E1F700C0000085E00E94000A0E94C6075C
:101C7000D9BDC8BDDBBDCABD8FEB97E2A9E08150DD
:101C80009040A040E1F700C000008FE00E94000AF1
:101C900019BC18BC1BBC1ABC0E94EA018823E1F7DE
:101CA0000E94EA018823E1F7DF91CF910895CF9355
:101CB000DF930E94BC07CEE1D0E0D9BDC8BDDBBD3B
:101CC000CABD8FE79CEFAAE081509040A040E1F7A9
:101CD00000C0000085E00E94000A0E94CA07D9BD2A
:101CE000C8BDDBBDCABD8FEF92E5A7E08150904033
:101CF000A040E1F700C0000085E00E94000A0E94B9
:101D0000BC0788E290E099BD88BD9BBD8ABD8FE786
:101D10009CEFAAE081509040A040E1F700C0000095
:101D200085E00E94000A0E94CA07D9BDC8BDDBBD7C
:101D3000CABD8FEB97E2A9E081509040A040E1F747
:101D400000C000008AE00E94000A0E94C607D9BDB8
:101D5000C8BDDBBDCABD8FEB97E2A9E081509040C2
:101D6000A040E1F700C000000E94BC07D9BDC8BD7B
:101D7000DBBDCABD8FE39EE7A5E081509040A04047
:101D8000E1F700C000000E94C607D9BDC8BDDBBD99
:101D9000CABD8FEF92E5A7E081509040A040E1F7E7
:101DA00000C000008AE00E94000A0E94C607D9BD58
:101DB000C8BDDBBDCABD8FEB97E2A9E08150904062
:101DC000A040E1F700C000008AE00E94000A0E94E3
:101DD000CA07D9BDC8BDDBBDCABD8FEB97E2A9E07C
:101DE00081509040A040E1F700C0000085E00E94D3
:101DF000000A0E94BC07D9BDC8BDDBBDCABD8FEFBC
:101E000092E5A7E081509040A040E1F700C00000BB
:101E100085E00E94000A0E94CA07D9BDC8BDDBBD8B
:101E2000CABD8FEB97E2A9E081509040A040E1F756
:101E300000C000000E94BC07D9BDC8BDDBBDCABD43
:101E40008FE79CEFAAE081509040A040E1F700C0EE
:101E500000000E94C607D9BDC8BDDBBDCABD8FEB5F
:101E600097E2A9E081509040A040E1F700C0000057
:101E700085E00E94000A0E94C607D9BDC8BDDBBD2F
:101E8000CABD8FEB97E2A9E081509040A040E1F7F6
:101E900000C0000085E00E94000A0E94CA07D9BD68
:101EA000C8BDDBBDCABD8FEB97E2A9E08150904071
:101EB000A040E1F700C000008AE00E94000ADF9124
:101EC000CF9108952FEB37E249E021503040404058
:101ED000E1F700C00000882319F40E94BC0917C074
:101EE000813019F40E94570E05C0823031F48AE027
:101EF0000E94000A0E94C60D0AC0833021F48AE0C5
:101F00000E94000A04C0843011F40E94570E1092FF
:101F10008D0210928E0210928F02109290021092F7
:101F20009502109294021BBC1ABC19BC18BC0895EF
:101F300070E079BD68BD90E09BBD8ABD0895DF92D9
:101F4000EF92FF920F931F93CF93DF9310928C0227
:101F5000109286020E94291709E1D02EC7E0D0E036
:101F600019C00E94A6018111D3940E94AB01811176
:101F7000DA948D2D90E060E040E023E00E94A9001B
:101F80000E94A101882331F0D0939502C09394025E
:101F90000E94980A0E949C01882319F300E0CEE178
:101FA000D0E003C00E944D0800E00E9498078823FB
:101FB000B1F08091D102882321F48091CF0288234F
:101FC00071F08091870360E00E947B00882339F0E4
:101FD0008091870361E00E947B00882319F780913C
:101FE000D102882309F047C08091CF02882309F0ED
:101FF00042C08091870360E00E946900882339F421
:102000008091870361E00E9469008823A1F180919B
:10201000870360E00E946900882349F412C00E948F
:102020007A030E94C607D9BDC8BDDBBDCABD809179
:10203000CF02882309F0B8CF8091D102882379F3A9
:10204000B3CF8091870361E00E946900882349F43F
:10205000ABCF0E947A030E94CA07D9BDC8BDDBBDC1
:10206000CABD8091CF02882309F09ECF8091D10212
:10207000882379F399CF0F5FD01608F096CF80911F
:102080008C0290E060E040E023E00E94A900809193
:10209000D10290E060E041E023E00E94A90080913D
:1020A000CF0290E064E041E023E00E94A90080912B
:1020B000870390E068E041E023E00E94A90080915E
:1020C0008C028F5F80938C02809186028F5F809359
:1020D0008602EAB4FBB408B519B51BBC1ABC19BC1E
:1020E00018BC0E94B001FF24FBBCEABC10E019BD83
:1020F00008BD109260031092930256CF1F93CF93A6
:10210000DF93162FC82FD0E0C258DE4FCE010E94B9
:10211000D81A682F6C7F612BCE010E94E01ADF91E4
:10212000CF911F91089590E082589E4F0E94D81A37
:10213000837008950F931F93DF93CF930F92CDB7C2
:10214000DEB7082F10E002581E4FC80169830E94B5
:10215000D81A8F7169816295660F607E682BC801FD
:102160000E94E01A0F90CF91DF911F910F91089577
:102170000F931F93DF93CF930F92CDB7DEB7082F46
:1021800010E002581E4FC80169830E94D81A837E4E
:102190006981660F660F682BC8010E94E01A0F90D4
:1021A000CF91DF911F910F91089590E082589E4F3B
:1021B0000E94D81A829586958770089590E082587B
:1021C0009E4F0E94D81A8C7186958695089590E04E
:1021D00082589E4F0E94E01A089590E082589E4FC8
:1021E0000E94D81A08956AE070E00E949918089534
:1021F0006AE070E00E949918862F0895982F990F31
:10220000892F880F880F890F860F08959091D0022B
:102210008091CB02992319F48093D00208958917F5
:1022200018F481E08093D0020895FF920F931F93DA
:10223000082F162F80E06FE041E00E947501912F7A
:10224000969588E0891B61E00E945217FF24F39461
:102250000BC0F01619F488E990E002C08AE990E01A
:1022600061E00E943117F3941F1598F71F910F91A9
:10227000FF9008952F923F924F925F926F927F92BC
:102280008F929F92AF92BF92CF92DF92EF92FF9286
:102290000F931F93DF93CF930F92CDB7DEB789E0F3
:1022A0008093CB020E94061101E010E066E0E62E6A
:1022B000F12C55E0C52ED12C48E0A42EB12C33E0F2
:1022C000832E912C22E0622E712C9AE0492E512C03
:1022D00089E0282E312CF1C00E9406118091D00295
:1022E0006091CB020E9415112091D0022730A9F4F1
:1022F00080E060E00E9452178CE990E060E10E946B
:1023000031170E940E02813009F0CAC027E030E088
:102310003093950220939402CEC0293099F480E046
:1023200060E00E9452178DEA90E060E10E94311750
:102330000E940E02813009F0B3C0309295022092C3
:102340009402B9C0222399F480E060E00E94521701
:102350008EEB90E060E10E9431170E940E02813006
:1023600009F09EC05092950240929402A4C022307F
:1023700099F480E060E00E9452178EEC90E060E1FA
:102380000E9431170E940E02813009F089C07092BC
:102390009502609294028FC0233099F480E060E04F
:1023A0000E9452178EED90E060E10E9431170E946A
:1023B0000E02813009F074C09092950280929402CE
:1023C0007AC0283099F480E060E00E9452178EEEC7
:1023D00090E060E10E9431170E940E02813009F006
:1023E0005FC0B0929502A092940265C0253099F426
:1023F00080E060E00E9452178FEF90E060E10E9461
:1024000031170E940E02813009F04AC0D092950225
:10241000C092940250C02630A9F480E060E00E948F
:10242000521780E191E060E10E9431170E940E0294
:102430008130B1F5F0929502E092940231E0309350
:10244000D0023BC02430A1F480E060E00E9452172B
:1024500081E291E060E10E9431170E940E0281301A
:10246000F9F4E4E0F0E0F0939502E093940223C0E5
:10247000213019F580E060E029830E94521782E341
:1024800091E060E10E9431170E940E0229818130A3
:1024900039F410939502009394022093D0020DC05A
:1024A000833021F48091D0028F5F05C0882329F406
:1024B0008091D00281508093D002809194029091BB
:1024C0009502009709F408CF0F90CF91DF911F91EB
:1024D0000F91FF90EF90DF90CF90BF90AF909F90C3
:1024E0008F907F906F905F904F903F902F900895C6
:1024F0004F925F927F928F929F92AF92BF92CF92B4
:10250000DF92EF92FF920F931F93DF93CF930F927F
:10251000CDB7DEB786E08093CB0216E0712E00E4E3
:1025200010E0B1E44B2E512CA2E4EA2EF12CFFE393
:10253000CF2ED12CEEE3AE2EB12C7DE3872E912C45
:10254000ACC00E9406118091D0026091CB020E9423
:1025500015112091D0022130D9F480E060E00E9472
:10256000521783E491E060E10E9431170E940E024D
:10257000813029F4909295028092940206C08330B3
:1025800009F07DC08091D0028F5F8093D00285C01A
:10259000223091F480E060E00E94521784E591E0DF
:1025A00060E10E9431170E940E02813041F7B09223
:1025B0009502A0929402E9CF233091F480E060E08C
:1025C0000E94521785E691E060E10E9431170E9457
:1025D0000E028130A1F6D0929502C0929402D5CF1E
:1025E000263019F580E060E029830E94521786E7C3
:1025F00091E060E10E9431170E940E022981813032
:1026000029F4F0929502E0929402BFCF833009F44E
:10261000B9CF8823B1F1823009F03FC01092950202
:10262000109294022093D00238C0253099F480E0B3
:1026300060E00E94521787E891E060E10E94311744
:102640000E940E02813009F09ACF5092950240927A
:1026500094029BCF243009F580E060E00E9452177D
:1026600088E991E060E10E9431170E940E028130FA
:1026700009F085CF109395020093940286CF8823AA
:1026800021F48091D002815080CF823031F41092B9
:102690009502109294027092D002809194029091CF
:1026A00095028630910509F44CCF0F90CF91DF91C0
:1026B0001F910F91FF90EF90DF90CF90BF90AF9060
:1026C0009F908F907F905F904F90089508957F9294
:1026D0008F929F92AF92BF92CF92DF92EF92FF9232
:1026E0000F931F93CF93DF9385E08093CB02C6E0D7
:1026F000D0E042E0742E00E712E031E7E32E32E052
:10270000F32E2EE6C22E22E0D22E9DE6A92E92E0D6
:10271000B92E8FE6882E82E0982E92C00E94061174
:102720008091D0026091CB020E9415118091D0025D
:102730008330D9F480E060E00E94521789EA91E08A
:1027400060E10E9431170E940E02813029F49092BC
:1027500095028092940206C0833009F043C08091B4
:10276000D0028F5F8093D0026BC0813091F480E003
:1027700060E00E9452178AEB91E060E10E943117FD
:102780000E940E02813041F7B0929502A09294020D
:10279000E9CF823091F480E060E00E9452178BEC28
:1027A00091E060E10E9431170E940E028130A1F693
:1027B000D0929502C0929402D5CF8530E1F480E0AA
:1027C00060E00E9452178CED91E060E10E943117A9
:1027D0000E940E02813009F0BFCFF0929502E09284
:1027E0009402C0CF882301F1823051F5D093950235
:1027F000C0939402B7CF843019F580E060E00E9466
:1028000052178DEE91E060E10E9431170E940E0296
:10281000813029F41093950200939402A3CF833062
:1028200009F49DCF882321F48091D00281509ACF62
:10283000823031F4D0939502C09394027092D0020A
:1028400080919402909195028E33910509F466CFA0
:10285000DF91CF911F910F91FF90EF90DF90CF907C
:10286000BF90AF909F908F907F9008951F93CF93CC
:10287000DF9310919202CEE3D0E032C080E060E0BE
:102880000E9452178EEF91E060E10E94311780E0C4
:1028900061E00E9452178FE092E060E10E943117E0
:1028A000812F90E067E041E023E00E94A9000E94B0
:1028B0000E02833011F41F5F13C0882311F41150EE
:1028C0000FC0823049F0813059F4109392028BE2AC
:1028D00092E0612F0E94E01AD0939502C093940277
:1028E000209194023091950282E02F36380731F220
:1028F000DF91CF911F9108951F93CF93DF93109194
:10290000CD02CEE3D0E034C080E060E00E945217F8
:1029100080E292E060E10E94311780E061E00E9475
:10292000521781E392E060E10E943117812F90E01D
:1029300067E041E022E00E94A9000E940E0283307D
:1029400011F41F5F15C0882311F4115011C082309B
:1029500059F0813069F41093CD021092CE028CE2CE
:1029600092E0612F0E94E01AD0939502C0939402E6
:10297000209194023091950282E02D36380721F2A1
:10298000DF91CF911F9108951F93CF93DF93109103
:10299000D202CEE3D0E034C080E060E00E94521763
:1029A00082E492E060E10E94311780E061E00E94E1
:1029B000521781E392E060E10E943117812F90E08D
:1029C00067E041E022E00E94A9000E940E028330ED
:1029D00011F41F5F15C0882311F4115011C082300B
:1029E00059F0813069F41093D2021092D3028DE233
:1029F00092E0612F0E94E01AD0939502C093940256
:102A0000209194023091950282E02E36380721F20F
:102A1000DF91CF911F9108958F929F92BF92CF9295
:102A2000DF92EF92FF920F931F93DF93CF930F925A
:102A3000CDB7DEB783E08093CB0276E0872E912C72
:102A4000BB24B39405E612E064E6E62E62E0F62EBF
:102A500053E6C52E52E0D52E6CC00E94061180911F
:102A6000D0026091CB020E9415112091D00221303A
:102A700041F580E060E029830E94521783E592E0EF
:102A800060E10E9431170E940E022981813029F4F1
:102A9000D0929502C092940205C0833031F48091A7
:102AA000D0028F5F8093D00244C08823B1F182307E
:102AB00009F03FC090929502809294022093D00238
:102AC00038C0223091F480E060E00E94521784E622
:102AD00092E060E10E9431170E940E028130C9F439
:102AE000F0929502E0929402DDCF233011F580E060
:102AF00060E00E94521785E792E060E10E94311782
:102B00000E940E02813029F41093950200939402E2
:102B1000C9CF833021F2882321F48091D0028150E3
:102B2000C1CF823031F49092950280929402B0929B
:102B3000D00280919402909195028D33910509F411
:102B40008CCF0F90CF91DF911F910F91FF90EF905D
:102B5000DF90CF90BF909F908F900895EF92FF925B
:102B60000F931F930E942917E7E0EE2E4DC00E949D
:102B70007A030FE017E0FE2CF11A8091D1026F2D3D
:102B80000E946900882319F081E090E002C080E093
:102B900090E0612F41E021E00E94A9008091CF02E6
:102BA0006F2D0E946900882319F081E090E002C037
:102BB00080E090E0602F41E021E00E94A9001150E8
:102BC00001501F3FC1F68091870360E00E946900B9
:102BD00090E067E040E021E00E94A9008091870337
:102BE00062E00E94690090E068E040E021E00E941D
:102BF000A9008091870361E00E94690090E069E08C
:102C000040E021E00E94A9000E94A101882309F46C
:102C1000AECF81E08093D0028DE390E09093950257
:102C2000809394021F910F91FF90EF9008950E945E
:102C3000B60610929502109294028091940290919F
:102C400095028530910511F40E94EF038091940262
:102C500090919502009711F40E943A11809194028C
:102C6000909195028730910511F40E94980A809105
:102C70009402909195028930910519F480E00E94A8
:102C8000620F80919402909195028A30910519F417
:102C900081E00E94620F80919402909195028230AF
:102CA000910519F482E00E94620F80919402909144
:102CB00095028330910519F483E00E94620F8091A0
:102CC0009402909195028430910519F484E00E9459
:102CD000620F80919402909195028130910511F4D8
:102CE0000E94940A809194029091950288309105F7
:102CF00011F40E941C0B80919402909195028630F1
:102D0000910511F40E94781280919402909195029D
:102D10008E33910511F40E94671380919402909173
:102D2000950222E08E36920711F40E94C41480911D
:102D300094029091950222E08D36920711F40E9440
:102D40007C14809194029091950222E08F36920734
:102D500011F40E94361480919402909195028D3363
:102D6000910511F40E940C158091940290919502A6
:102D700022E08336920709F060CF0E94AE155DCF46
:102D800087FF02C0C09A01C0C09886FF02C0C19AE6
:102D900001C0C19885FF02C0C29A01C0C29884FFD9
:102DA00002C0C39A0895C39808951F93182F807F77
:102DB0000E94C016C59AC49A87EB9BE00197F1F771
:102DC00000C00000C498C59887EB9BE00197F1F71D
:102DD00000C00000812F8295807F0E94C016C59A96
:102DE000C49A87EB9BE00197F1F700C00000C498FC
:102DF000C59887EB9BE00197F1F700C000001F9199
:102E000008951F93182F807F0E94C016C49A87EBE5
:102E10009BE00197F1F700C00000C49887EB9BE0AE
:102E20000197F1F700C00000812F8295807F0E94FA
:102E3000C016C49A87EB9BE00197F1F700C0000031
:102E4000C49887EB9BE00197F1F700C000001F9149
:102E5000089581E00E940117089582E00E94011701
:102E60000895EF92FF921F93DF93CF930F92CDB708
:102E7000DEB7009781F0182F482F592F7A0107C02D
:102E8000F70181917F0169830E94D51669818E2D9A
:102E9000811B8617A8F30F90CF91DF911F91FF90B0
:102EA000EF900895623031F0633031F0613029F4F1
:102EB000805C03C08C5E01C08C5A80680E94011740
:102EC00008951F93CF93DF93EC01862F642F0E9408
:102ED000521710E003C00E94D5161F5FFE01E10FDC
:102EE000F11D84918823B9F7DF91CF911F91089547
:102EF000CF92DF92FF920F931F93DF93CF930F92A6
:102F0000CDB7DEB76C01660F660F660F606400E038
:102F100010E0F601E00FF11FF490862F800F698317
:102F20000E9401178F2D0E94D5160F5F1F4F6981D8
:102F30000830110571F70F90CF91DF911F910F911C
:102F4000FF90DF90CF900895CF93DF9387EC9FEAB7
:102F50000197F1F700C0000080E00E94C016C598FC
:102F6000C798C498BB9ABA9AB99AB89ABD9ABF9AA8
:102F7000BC9A80E30E94C016C49A87EB9BE001973D
:102F8000F1F700C00000C49887EB9BE00197F1F7D0
:102F900000C0000080E30E94C016C49A87EB9BE04B
:102FA0000197F1F700C00000C49887EB9BE0019700
:102FB000F1F700C0000080E20E94C016C49A87EBBF
:102FC0009BE00197F1F700C00000C49887EB9BE0FD
:102FD0000197F1F700C0000088E20E9401178CE021
:102FE0000E940117C0E0D0E0CE0123E0880F991FB6
:102FF0002A95E1F78C5A9F4F6C2F0E9478172196E3
:10300000C830D10589F7DF91CF9108950F931F93B1
:10301000082F10E004C08EE10E9401171F5F1017F7
:10302000D0F31F910F9108950F931F93082F10E075
:1030300004C088E10E9401171F5F1017D0F31F9191
:103040000F9108958EE00E94011708958FE00E946D
:10305000011708958CE00E940117089588E00E94EE
:10306000011708958CE00E94011708950F931F9394
:10307000082F10E004C080E10E9401171F5F1017A5
:10308000D0F31F910F9108950F931F93082F10E015
:1030900004C084E10E9401171F5F1017D0F31F9135
:1030A0000F910895CF92DF92EF92FF920F931F93AB
:1030B000DF93CF930F92CDB7DEB7E6E08E9FF0019E
:1030C0001124242F30E0E29FC001E39F900DF29F76
:1030D000900D112470E00E94AD186B01CB0166E0E9
:1030E00070E00E949918E82E00E010E0FF2415C05F
:1030F00098012B5F3F4FC216D30628F4C016D106A5
:1031000020F480E003C085E001C08E2D49830E9439
:10311000D516F3940A5F1F4F4981F41648F30F90B8
:10312000CF91DF911F910F91FF90EF90DF90CF90A3
:103130000895AA1BBB1B51E107C0AA1FBB1FA617FE
:10314000B70710F0A61BB70B881F991F5A95A9F750
:1031500080959095BC01CD01089597FB092E072617
:103160000AD077FD04D0E5DF06D000201AF4709570
:1031700061957F4F0895F6F7909581959F4F08953B
:10318000AEE0B0E0E6ECF8E10C94AC1B0D891E89D2
:103190008F89988D26E02C831A83098397FF02C0BC
:1031A00080E090E801979E838D839E01255E3F4FCE
:1031B000CE010196698D7A8DA9010E94F1184D8189
:1031C0005E8157FD0AC02F813885421753070CF4E2
:1031D0009A01020F131FF80110822E96E4E00C945E
:1031E000C81BACE0B0E0E7EFF8E10C949E1B6C016B
:1031F0001B018A01FC0117821682838181FFD1C1E4
:103200002E010894411C511CF6019381F10193FD9C
:10321000859193FF81911F01882309F4BEC18532F6
:1032200039F493FD859193FF81911F01853229F433
:1032300090E0B6010E94141BE7CFEE24FF2420E0AB
:103240002032B0F48B3269F08C3228F4803251F0A5
:10325000833271F40BC08D3239F0803349F4216030
:103260002CC02260246029C0286027C0206125C0AE
:1032700027FD2CC0382F30533A3098F426FF08C071
:103280008E2D880FE82EEE0CEE0CE80EE30E15C026
:103290008F2D880FF82EFF0CFF0CF80EF30E206216
:1032A0000CC08E3221F426FD78C1206406C08C3615
:1032B00011F4206802C0883649F4F10193FD85912C
:1032C00093FF81911F01882309F0BACF982F95545D
:1032D000933018F09052933028F40C5F1F4FFFE3A7
:1032E000F9830DC0833631F0833771F0833509F0EF
:1032F00060C022C0F801808189830E5F1F4F4201A8
:1033000071E0A72EB12C16C062E0662E712C600E03
:10331000711EF8018080918026FF03C06E2D70E041
:1033200002C06FEF7FEFC4012C870E94091B5C0174
:1033300083012C852F7717C052E0652E712C600E0B
:10334000711EF8018080918026FF03C06E2D70E011
:1033500002C06FEF7FEFC4012C870E94FE1A5C0150
:103360002C852068830123FD20C008C080E290E006
:10337000B6012C870E94141BFA942C858F2D90E0A7
:10338000A816B90698F311C0F40127FD859127FF0F
:1033900081914F0190E0B6012C870E94141B2C856F
:1033A000F110FA940894A108B108A114B10461F7CE
:1033B000F1C0843611F0893649F527FF08C0F801BD
:1033C00060817181828193810C5F1F4F09C0F80178
:1033D00060817181882777FD8095982F0E5F1F4F40
:1033E0004FE6B42EB22297FF09C090958095709554
:1033F00061957F4F8F4F9F4FF0E8BF2AA2012AE0CF
:1034000030E00E94401B782E741845C0853731F497
:103410003FEEB32EB2222AE030E025C099EFB92E5C
:10342000B2228F36C1F0803720F4883509F0B5C05C
:103430000DC0803721F0883709F0AFC002C020E10D
:10344000B22AB4FE0BC084E0B82A08C0B4FE09C09A
:10345000E6E0BE2A06C028E030E005C020E130E00A
:1034600002C020E132E0B7FE08C0F801608171813E
:10347000828193810C5F1F4F07C0F80160817181C9
:1034800080E090E00E5F1F4FA2010E94401B782E4B
:103490007418FFE7BF22B6FE0BC02EEFB2227E14D7
:1034A00038F4B4FE07C0B2FC05C08FEEB82202C0EB
:1034B000A72C01C0AE2C8B2D90E0B4FE0DC0FE01F8
:1034C000E70DF11D2081203319F4E9EEBE2209C079
:1034D000A394B2FE06C004C086789070009709F0ED
:1034E000A3948B2C9924B3FC14C0B0FE0FC0AF146E
:1034F00028F4E72CEF0CEA18AF2C08C0E72C06C024
:1035000080E290E0B6010E94141BA394AF14C0F3B4
:1035100004C0AF1410F4FA1801C0FF2484FE0FC0D9
:1035200080E390E0B6010E94141B82FE1FC081FE62
:1035300003C088E590E010C088E790E00DC0C401AA
:1035400086789070009791F081FC02C080E201C003
:103550008BE2B7FC8DE290E0B6010E94141B06C01E
:1035600080E390E0B6010E94141BEA947E14C0F33D
:103570007A94F201E70DF11D808190E0B6010E947E
:10358000141B7720A9F706C080E290E0B6010E94E4
:10359000141BFA94FF20C1F737CEF601268137813C
:1035A00002C02FEF3FEFC9012C96E2E10C94BA1B49
:1035B000E199FECF9FBB8EBBE09A99278DB308950A
:1035C000262FE199FECF9FBB8EBBE09A01970DB2EB
:1035D000021631F02DBB0FB6F894E29AE19A0FBEB5
:1035E0000895262FE199FECF9FBB8EBB2DBB0FB652
:1035F000F894E29AE19A0FBE01960895FC010590B5
:10360000615070400110D8F7809590958E0F9F1FE4
:103610000895FC016150704001900110D8F7809529
:1036200090958E0F9F1F08950F931F93CF93DF9355
:103630008C01EB018B8181FF1BC082FF0DC02E81AD
:103640003F818C819D812817390764F4E881F981D5
:103650000193F983E88306C0E885F985802F0995F1
:10366000009731F48E819F8101969F838E8302C0E3
:103670000FEF1FEFC801DF91CF911F910F910895B8
:10368000FA01AA27283051F1203181F1E8946F9393
:103690006E7F6E5F7F4F8F4F9F4FAF4FB1E03ED039
:1036A000B4E03CD0670F781F891F9A1FA11D680FD7
:1036B000791F8A1F911DA11D6A0F711D811D911D0A
:1036C000A11D20D009F468943F912AE0269F11247F
:1036D0003019305D3193DEF6CF010895462F4770E3
:1036E000405D4193B3E00FD0C9F7F6CF462F4F703E
:1036F000405D4A3318F0495D31FD4052419302D09C
:10370000A9F7EACFB4E0A695979587957795679541
:10371000BA95C9F700976105710508959B01AC0141
:103720000A2E06945795479537952795BA95C9F768
:10373000620F731F841F951FA01D08952F923F9243
:103740004F925F926F927F928F929F92AF92BF92B1
:10375000CF92DF92EF92FF920F931F93CF93DF935D
:10376000CDB7DEB7CA1BDB0B0FB6F894DEBF0FBEBA
:10377000CDBF09942A88398848885F846E847D8407
:103780008C849B84AA84B984C884DF80EE80FD8009
:103790000C811B81AA81B981CE0FD11D0FB6F8947F
:0E37A000DEBF0FBECDBFED010895F894FFCF40
:1037AE0020002564003C3C2D232323237C7C2323F3
:1037BE0023232B3E3E003C3C2D202020232323237D
:1037CE002020202B3E3E004C4F472052554E57484E
:1037DE00494C45204552520023002D0052554E2093
:1037EE002020202020202020202030420052554E24
:1037FE00204D415050494E472020203042004D412F
:10380E005050494E472043312020202042004D4148
:10381E005050494E472043322020202042004D4137
:10382E005050494E4720433320202020420052550D
:10383E004E205445535420435452202020420043DE
:10384E00414C494252415445202020202030420014
:10385E0053455454494E47202020202020203042EA
:10386E000052554E204D2E2045424F544543203098
:10387E00420052554E204C4541524E2020202020D1
:10388E002042004445425547202020202020202061
:10389E0020314200504944265350454544202020B3
:1038AE002020314200534156455320202020202015
:1038BE002020203142004552524F522F424F424F4C
:1038CE005420202031420053414D504C494E472048
:1038DE00202020202031420053454E534F522D536D
:1038EE00455420202020314200535045454420208D
:1038FE00202020202020205B42004B502020202022
:10390E0020202020202020205B42004B442020201D
:10391E002020202020202020205B42004D415853A3
:10392E00504545442020202020205B42004D494E2A
:10393E0053504545442020202020205B42004F4B11
:10394E002020207B53504545447D20205B42003C87
:10395E003C2D202020202323232020202B3E3E0000
:10396E004F4B2020207B204B50207D2020205B427F
:10397E00003C3C2D202020202323202020202B3EE5
:10398E003E004F4B2020207B204B44207D202020CA
:10399E005B420044454255472D53454E534F5220EE
:1039AE002032420044454255472D414443202020B9
:1039BE00202032420044454255472D445249564537
:0C39CE005220203242000A1E00000000BF
:00000001FF
